{
  "_format": "hh-sol-artifact-1",
  "contractName": "OnchainSummerPFP",
  "sourceName": "contracts/OnchainSummerPFP.sol",
  "abi": [
    {
      "inputs": [],
      "stateMutability": "nonpayable",
      "type": "constructor"
    },
    {
      "anonymous": false,
      "inputs": [
        {
          "indexed": true,
          "internalType": "address",
          "name": "owner",
          "type": "address"
        },
        {
          "indexed": true,
          "internalType": "address",
          "name": "approved",
          "type": "address"
        },
        {
          "indexed": true,
          "internalType": "uint256",
          "name": "tokenId",
          "type": "uint256"
        }
      ],
      "name": "Approval",
      "type": "event"
    },
    {
      "anonymous": false,
      "inputs": [
        {
          "indexed": true,
          "internalType": "address",
          "name": "owner",
          "type": "address"
        },
        {
          "indexed": true,
          "internalType": "address",
          "name": "operator",
          "type": "address"
        },
        {
          "indexed": false,
          "internalType": "bool",
          "name": "approved",
          "type": "bool"
        }
      ],
      "name": "ApprovalForAll",
      "type": "event"
    },
    {
      "anonymous": false,
      "inputs": [
        {
          "indexed": false,
          "internalType": "uint256",
          "name": "_fromTokenId",
          "type": "uint256"
        },
        {
          "indexed": false,
          "internalType": "uint256",
          "name": "_toTokenId",
          "type": "uint256"
        }
      ],
      "name": "BatchMetadataUpdate",
      "type": "event"
    },
    {
      "anonymous": false,
      "inputs": [
        {
          "indexed": false,
          "internalType": "uint256",
          "name": "_tokenId",
          "type": "uint256"
        }
      ],
      "name": "MetadataUpdate",
      "type": "event"
    },
    {
      "anonymous": false,
      "inputs": [
        {
          "indexed": true,
          "internalType": "address",
          "name": "previousOwner",
          "type": "address"
        },
        {
          "indexed": true,
          "internalType": "address",
          "name": "newOwner",
          "type": "address"
        }
      ],
      "name": "OwnershipTransferred",
      "type": "event"
    },
    {
      "anonymous": false,
      "inputs": [
        {
          "indexed": true,
          "internalType": "address",
          "name": "from",
          "type": "address"
        },
        {
          "indexed": true,
          "internalType": "address",
          "name": "to",
          "type": "address"
        },
        {
          "indexed": true,
          "internalType": "uint256",
          "name": "tokenId",
          "type": "uint256"
        }
      ],
      "name": "Transfer",
      "type": "event"
    },
    {
      "inputs": [],
      "name": "MINT_PRICE",
      "outputs": [
        {
          "internalType": "uint256",
          "name": "",
          "type": "uint256"
        }
      ],
      "stateMutability": "view",
      "type": "function"
    },
    {
      "inputs": [
        {
          "internalType": "address",
          "name": "to",
          "type": "address"
        },
        {
          "internalType": "uint256",
          "name": "tokenId",
          "type": "uint256"
        }
      ],
      "name": "approve",
      "outputs": [],
      "stateMutability": "nonpayable",
      "type": "function"
    },
    {
      "inputs": [
        {
          "internalType": "address",
          "name": "owner",
          "type": "address"
        }
      ],
      "name": "balanceOf",
      "outputs": [
        {
          "internalType": "uint256",
          "name": "",
          "type": "uint256"
        }
      ],
      "stateMutability": "view",
      "type": "function"
    },
    {
      "inputs": [
        {
          "internalType": "uint256",
          "name": "tokenId",
          "type": "uint256"
        }
      ],
      "name": "getApproved",
      "outputs": [
        {
          "internalType": "address",
          "name": "",
          "type": "address"
        }
      ],
      "stateMutability": "view",
      "type": "function"
    },
    {
      "inputs": [
        {
          "internalType": "address",
          "name": "owner",
          "type": "address"
        },
        {
          "internalType": "address",
          "name": "operator",
          "type": "address"
        }
      ],
      "name": "isApprovedForAll",
      "outputs": [
        {
          "internalType": "bool",
          "name": "",
          "type": "bool"
        }
      ],
      "stateMutability": "view",
      "type": "function"
    },
    {
      "inputs": [
        {
          "internalType": "address",
          "name": "to",
          "type": "address"
        },
        {
          "internalType": "string",
          "name": "tokenURI",
          "type": "string"
        }
      ],
      "name": "mint",
      "outputs": [],
      "stateMutability": "payable",
      "type": "function"
    },
    {
      "inputs": [],
      "name": "name",
      "outputs": [
        {
          "internalType": "string",
          "name": "",
          "type": "string"
        }
      ],
      "stateMutability": "view",
      "type": "function"
    },
    {
      "inputs": [],
      "name": "owner",
      "outputs": [
        {
          "internalType": "address",
          "name": "",
          "type": "address"
        }
      ],
      "stateMutability": "view",
      "type": "function"
    },
    {
      "inputs": [
        {
          "internalType": "uint256",
          "name": "tokenId",
          "type": "uint256"
        }
      ],
      "name": "ownerOf",
      "outputs": [
        {
          "internalType": "address",
          "name": "",
          "type": "address"
        }
      ],
      "stateMutability": "view",
      "type": "function"
    },
    {
      "inputs": [],
      "name": "renounceOwnership",
      "outputs": [],
      "stateMutability": "nonpayable",
      "type": "function"
    },
    {
      "inputs": [
        {
          "internalType": "address",
          "name": "from",
          "type": "address"
        },
        {
          "internalType": "address",
          "name": "to",
          "type": "address"
        },
        {
          "internalType": "uint256",
          "name": "tokenId",
          "type": "uint256"
        }
      ],
      "name": "safeTransferFrom",
      "outputs": [],
      "stateMutability": "nonpayable",
      "type": "function"
    },
    {
      "inputs": [
        {
          "internalType": "address",
          "name": "from",
          "type": "address"
        },
        {
          "internalType": "address",
          "name": "to",
          "type": "address"
        },
        {
          "internalType": "uint256",
          "name": "tokenId",
          "type": "uint256"
        },
        {
          "internalType": "bytes",
          "name": "data",
          "type": "bytes"
        }
      ],
      "name": "safeTransferFrom",
      "outputs": [],
      "stateMutability": "nonpayable",
      "type": "function"
    },
    {
      "inputs": [
        {
          "internalType": "address",
          "name": "operator",
          "type": "address"
        },
        {
          "internalType": "bool",
          "name": "approved",
          "type": "bool"
        }
      ],
      "name": "setApprovalForAll",
      "outputs": [],
      "stateMutability": "nonpayable",
      "type": "function"
    },
    {
      "inputs": [
        {
          "internalType": "bytes4",
          "name": "interfaceId",
          "type": "bytes4"
        }
      ],
      "name": "supportsInterface",
      "outputs": [
        {
          "internalType": "bool",
          "name": "",
          "type": "bool"
        }
      ],
      "stateMutability": "view",
      "type": "function"
    },
    {
      "inputs": [],
      "name": "symbol",
      "outputs": [
        {
          "internalType": "string",
          "name": "",
          "type": "string"
        }
      ],
      "stateMutability": "view",
      "type": "function"
    },
    {
      "inputs": [
        {
          "internalType": "uint256",
          "name": "tokenId",
          "type": "uint256"
        }
      ],
      "name": "tokenURI",
      "outputs": [
        {
          "internalType": "string",
          "name": "",
          "type": "string"
        }
      ],
      "stateMutability": "view",
      "type": "function"
    },
    {
      "inputs": [],
      "name": "totalSupply",
      "outputs": [
        {
          "internalType": "uint256",
          "name": "",
          "type": "uint256"
        }
      ],
      "stateMutability": "view",
      "type": "function"
    },
    {
      "inputs": [
        {
          "internalType": "address",
          "name": "from",
          "type": "address"
        },
        {
          "internalType": "address",
          "name": "to",
          "type": "address"
        },
        {
          "internalType": "uint256",
          "name": "tokenId",
          "type": "uint256"
        }
      ],
      "name": "transferFrom",
      "outputs": [],
      "stateMutability": "nonpayable",
      "type": "function"
    },
    {
      "inputs": [
        {
          "internalType": "address",
          "name": "newOwner",
          "type": "address"
        }
      ],
      "name": "transferOwnership",
      "outputs": [],
      "stateMutability": "nonpayable",
      "type": "function"
    },
    {
      "inputs": [],
      "name": "withdraw",
      "outputs": [],
      "stateMutability": "nonpayable",
      "type": "function"
    }
  ],
  "bytecode": "0x60806040523480156200001157600080fd5b506040518060400160405280600481526020017f4c465447000000000000000000000000000000000000000000000000000000008152506040518060400160405280600481526020017f4c4654470000000000000000000000000000000000000000000000000000000081525081600090816200008f919062000412565b508060019081620000a1919062000412565b505050620000c4620000b8620000ca60201b60201c565b620000d260201b60201c565b620004f9565b600033905090565b6000600760009054906101000a900473ffffffffffffffffffffffffffffffffffffffff16905081600760006101000a81548173ffffffffffffffffffffffffffffffffffffffff021916908373ffffffffffffffffffffffffffffffffffffffff1602179055508173ffffffffffffffffffffffffffffffffffffffff168173ffffffffffffffffffffffffffffffffffffffff167f8be0079c531659141344cd1fd0a4f28419497f9722a3daafe3b4186f6b6457e060405160405180910390a35050565b600081519050919050565b7f4e487b7100000000000000000000000000000000000000000000000000000000600052604160045260246000fd5b7f4e487b7100000000000000000000000000000000000000000000000000000000600052602260045260246000fd5b600060028204905060018216806200021a57607f821691505b60208210810362000230576200022f620001d2565b5b50919050565b60008190508160005260206000209050919050565b60006020601f8301049050919050565b600082821b905092915050565b6000600883026200029a7fffffffffffffffffffffffffffffffffffffffffffffffffffffffffffffffff826200025b565b620002a686836200025b565b95508019841693508086168417925050509392505050565b6000819050919050565b6000819050919050565b6000620002f3620002ed620002e784620002be565b620002c8565b620002be565b9050919050565b6000819050919050565b6200030f83620002d2565b620003276200031e82620002fa565b84845462000268565b825550505050565b600090565b6200033e6200032f565b6200034b81848462000304565b505050565b5b8181101562000373576200036760008262000334565b60018101905062000351565b5050565b601f821115620003c2576200038c8162000236565b62000397846200024b565b81016020851015620003a7578190505b620003bf620003b6856200024b565b83018262000350565b50505b505050565b600082821c905092915050565b6000620003e760001984600802620003c7565b1980831691505092915050565b6000620004028383620003d4565b9150826002028217905092915050565b6200041d8262000198565b67ffffffffffffffff811115620004395762000438620001a3565b5b62000445825462000201565b6200045282828562000377565b600060209050601f8311600181146200048a576000841562000475578287015190505b620004818582620003f4565b865550620004f1565b601f1984166200049a8662000236565b60005b82811015620004c4578489015182556001820191506020850194506020810190506200049d565b86831015620004e45784890151620004e0601f891682620003d4565b8355505b6001600288020188555050505b505050505050565b6130ae80620005096000396000f3fe60806040526004361061011f5760003560e01c8063715018a6116100a0578063c002d23d11610064578063c002d23d146103bf578063c87b56dd146103ea578063d0def52114610427578063e985e9c514610443578063f2fde38b146104805761011f565b8063715018a6146103005780638da5cb5b1461031757806395d89b4114610342578063a22cb4651461036d578063b88d4fde146103965761011f565b806323b872dd116100e757806323b872dd1461021d5780633ccfd60b1461024657806342842e0e1461025d5780636352211e1461028657806370a08231146102c35761011f565b806301ffc9a71461012457806306fdde0314610161578063081812fc1461018c578063095ea7b3146101c957806318160ddd146101f2575b600080fd5b34801561013057600080fd5b5061014b60048036038101906101469190611e33565b6104a9565b6040516101589190611e7b565b60405180910390f35b34801561016d57600080fd5b5061017661050a565b6040516101839190611f26565b60405180910390f35b34801561019857600080fd5b506101b360048036038101906101ae9190611f7e565b61059c565b6040516101c09190611fec565b60405180910390f35b3480156101d557600080fd5b506101f060048036038101906101eb9190612033565b6105e2565b005b3480156101fe57600080fd5b506102076106f9565b6040516102149190612082565b60405180910390f35b34801561022957600080fd5b50610244600480360381019061023f919061209d565b61070a565b005b34801561025257600080fd5b5061025b61076a565b005b34801561026957600080fd5b50610284600480360381019061027f919061209d565b6107c8565b005b34801561029257600080fd5b506102ad60048036038101906102a89190611f7e565b6107e8565b6040516102ba9190611fec565b60405180910390f35b3480156102cf57600080fd5b506102ea60048036038101906102e591906120f0565b61086e565b6040516102f79190612082565b60405180910390f35b34801561030c57600080fd5b50610315610925565b005b34801561032357600080fd5b5061032c610939565b6040516103399190611fec565b60405180910390f35b34801561034e57600080fd5b50610357610963565b6040516103649190611f26565b60405180910390f35b34801561037957600080fd5b50610394600480360381019061038f9190612149565b6109f5565b005b3480156103a257600080fd5b506103bd60048036038101906103b891906122be565b610a0b565b005b3480156103cb57600080fd5b506103d4610a6d565b6040516103e19190612082565b60405180910390f35b3480156103f657600080fd5b50610411600480360381019061040c9190611f7e565b610a78565b60405161041e9190611f26565b60405180910390f35b610441600480360381019061043c91906123e2565b610b8a565b005b34801561044f57600080fd5b5061046a6004803603810190610465919061243e565b610c05565b6040516104779190611e7b565b60405180910390f35b34801561048c57600080fd5b506104a760048036038101906104a291906120f0565b610c99565b005b6000634906490660e01b7bffffffffffffffffffffffffffffffffffffffffffffffffffffffff1916827bffffffffffffffffffffffffffffffffffffffffffffffffffffffff19161480610503575061050282610d1c565b5b9050919050565b606060008054610519906124ad565b80601f0160208091040260200160405190810160405280929190818152602001828054610545906124ad565b80156105925780601f1061056757610100808354040283529160200191610592565b820191906000526020600020905b81548152906001019060200180831161057557829003601f168201915b5050505050905090565b60006105a782610dfe565b6004600083815260200190815260200160002060009054906101000a900473ffffffffffffffffffffffffffffffffffffffff169050919050565b60006105ed826107e8565b90508073ffffffffffffffffffffffffffffffffffffffff168373ffffffffffffffffffffffffffffffffffffffff160361065d576040517f08c379a000000000000000000000000000000000000000000000000000000000815260040161065490612550565b60405180910390fd5b8073ffffffffffffffffffffffffffffffffffffffff1661067c610e49565b73ffffffffffffffffffffffffffffffffffffffff1614806106ab57506106aa816106a5610e49565b610c05565b5b6106ea576040517f08c379a00000000000000000000000000000000000000000000000000000000081526004016106e1906125e2565b60405180910390fd5b6106f48383610e51565b505050565b60006107056008610f0a565b905090565b61071b610715610e49565b82610f18565b61075a576040517f08c379a000000000000000000000000000000000000000000000000000000000815260040161075190612674565b60405180910390fd5b610765838383610fad565b505050565b6107726112a6565b600047905061077f610939565b73ffffffffffffffffffffffffffffffffffffffff166108fc829081150290604051600060405180830381858888f193505050501580156107c4573d6000803e3d6000fd5b5050565b6107e383838360405180602001604052806000815250610a0b565b505050565b6000806107f483611324565b9050600073ffffffffffffffffffffffffffffffffffffffff168173ffffffffffffffffffffffffffffffffffffffff1603610865576040517f08c379a000000000000000000000000000000000000000000000000000000000815260040161085c906126e0565b60405180910390fd5b80915050919050565b60008073ffffffffffffffffffffffffffffffffffffffff168273ffffffffffffffffffffffffffffffffffffffff16036108de576040517f08c379a00000000000000000000000000000000000000000000000000000000081526004016108d590612772565b60405180910390fd5b600360008373ffffffffffffffffffffffffffffffffffffffff1673ffffffffffffffffffffffffffffffffffffffff168152602001908152602001600020549050919050565b61092d6112a6565b6109376000611361565b565b6000600760009054906101000a900473ffffffffffffffffffffffffffffffffffffffff16905090565b606060018054610972906124ad565b80601f016020809104026020016040519081016040528092919081815260200182805461099e906124ad565b80156109eb5780601f106109c0576101008083540402835291602001916109eb565b820191906000526020600020905b8154815290600101906020018083116109ce57829003601f168201915b5050505050905090565b610a07610a00610e49565b8383611427565b5050565b610a1c610a16610e49565b83610f18565b610a5b576040517f08c379a0000000000000000000000000000000000000000000000000000000008152600401610a5290612674565b60405180910390fd5b610a6784848484611593565b50505050565b662386f26fc1000081565b6060610a8382610dfe565b6000600660008481526020019081526020016000208054610aa3906124ad565b80601f0160208091040260200160405190810160405280929190818152602001828054610acf906124ad565b8015610b1c5780601f10610af157610100808354040283529160200191610b1c565b820191906000526020600020905b815481529060010190602001808311610aff57829003601f168201915b505050505090506000610b2d6115ef565b90506000815103610b42578192505050610b85565b600082511115610b77578082604051602001610b5f9291906127ce565b60405160208183030381529060405292505050610b85565b610b8084611606565b925050505b919050565b662386f26fc10000341015610bd4576040517f08c379a0000000000000000000000000000000000000000000000000000000008152600401610bcb9061283e565b60405180910390fd5b6000610be06008610f0a565b9050610bec838261166e565b610bf6818361188b565b610c00600861192f565b505050565b6000600560008473ffffffffffffffffffffffffffffffffffffffff1673ffffffffffffffffffffffffffffffffffffffff16815260200190815260200160002060008373ffffffffffffffffffffffffffffffffffffffff1673ffffffffffffffffffffffffffffffffffffffff16815260200190815260200160002060009054906101000a900460ff16905092915050565b610ca16112a6565b600073ffffffffffffffffffffffffffffffffffffffff168173ffffffffffffffffffffffffffffffffffffffff1603610d10576040517f08c379a0000000000000000000000000000000000000000000000000000000008152600401610d07906128d0565b60405180910390fd5b610d1981611361565b50565b60007f80ac58cd000000000000000000000000000000000000000000000000000000007bffffffffffffffffffffffffffffffffffffffffffffffffffffffff1916827bffffffffffffffffffffffffffffffffffffffffffffffffffffffff19161480610de757507f5b5e139f000000000000000000000000000000000000000000000000000000007bffffffffffffffffffffffffffffffffffffffffffffffffffffffff1916827bffffffffffffffffffffffffffffffffffffffffffffffffffffffff1916145b80610df75750610df682611945565b5b9050919050565b610e07816119af565b610e46576040517f08c379a0000000000000000000000000000000000000000000000000000000008152600401610e3d906126e0565b60405180910390fd5b50565b600033905090565b816004600083815260200190815260200160002060006101000a81548173ffffffffffffffffffffffffffffffffffffffff021916908373ffffffffffffffffffffffffffffffffffffffff160217905550808273ffffffffffffffffffffffffffffffffffffffff16610ec4836107e8565b73ffffffffffffffffffffffffffffffffffffffff167f8c5be1e5ebec7d5bd14f71427d1e84f3dd0314c0f7b2291e5b200ac8c7c3b92560405160405180910390a45050565b600081600001549050919050565b600080610f24836107e8565b90508073ffffffffffffffffffffffffffffffffffffffff168473ffffffffffffffffffffffffffffffffffffffff161480610f665750610f658185610c05565b5b80610fa457508373ffffffffffffffffffffffffffffffffffffffff16610f8c8461059c565b73ffffffffffffffffffffffffffffffffffffffff16145b91505092915050565b8273ffffffffffffffffffffffffffffffffffffffff16610fcd826107e8565b73ffffffffffffffffffffffffffffffffffffffff1614611023576040517f08c379a000000000000000000000000000000000000000000000000000000000815260040161101a90612962565b60405180910390fd5b600073ffffffffffffffffffffffffffffffffffffffff168273ffffffffffffffffffffffffffffffffffffffff1603611092576040517f08c379a0000000000000000000000000000000000000000000000000000000008152600401611089906129f4565b60405180910390fd5b61109f83838360016119f0565b8273ffffffffffffffffffffffffffffffffffffffff166110bf826107e8565b73ffffffffffffffffffffffffffffffffffffffff1614611115576040517f08c379a000000000000000000000000000000000000000000000000000000000815260040161110c90612962565b60405180910390fd5b6004600082815260200190815260200160002060006101000a81549073ffffffffffffffffffffffffffffffffffffffff02191690556001600360008573ffffffffffffffffffffffffffffffffffffffff1673ffffffffffffffffffffffffffffffffffffffff168152602001908152602001600020600082825403925050819055506001600360008473ffffffffffffffffffffffffffffffffffffffff1673ffffffffffffffffffffffffffffffffffffffff16815260200190815260200160002060008282540192505081905550816002600083815260200190815260200160002060006101000a81548173ffffffffffffffffffffffffffffffffffffffff021916908373ffffffffffffffffffffffffffffffffffffffff160217905550808273ffffffffffffffffffffffffffffffffffffffff168473ffffffffffffffffffffffffffffffffffffffff167fddf252ad1be2c89b69c2b068fc378daa952ba7f163c4a11628f55a4df523b3ef60405160405180910390a46112a183838360016119f6565b505050565b6112ae610e49565b73ffffffffffffffffffffffffffffffffffffffff166112cc610939565b73ffffffffffffffffffffffffffffffffffffffff1614611322576040517f08c379a000000000000000000000000000000000000000000000000000000000815260040161131990612a60565b60405180910390fd5b565b60006002600083815260200190815260200160002060009054906101000a900473ffffffffffffffffffffffffffffffffffffffff169050919050565b6000600760009054906101000a900473ffffffffffffffffffffffffffffffffffffffff16905081600760006101000a81548173ffffffffffffffffffffffffffffffffffffffff021916908373ffffffffffffffffffffffffffffffffffffffff1602179055508173ffffffffffffffffffffffffffffffffffffffff168173ffffffffffffffffffffffffffffffffffffffff167f8be0079c531659141344cd1fd0a4f28419497f9722a3daafe3b4186f6b6457e060405160405180910390a35050565b8173ffffffffffffffffffffffffffffffffffffffff168373ffffffffffffffffffffffffffffffffffffffff1603611495576040517f08c379a000000000000000000000000000000000000000000000000000000000815260040161148c90612acc565b60405180910390fd5b80600560008573ffffffffffffffffffffffffffffffffffffffff1673ffffffffffffffffffffffffffffffffffffffff16815260200190815260200160002060008473ffffffffffffffffffffffffffffffffffffffff1673ffffffffffffffffffffffffffffffffffffffff16815260200190815260200160002060006101000a81548160ff0219169083151502179055508173ffffffffffffffffffffffffffffffffffffffff168373ffffffffffffffffffffffffffffffffffffffff167f17307eab39ab6107e8899845ad3d59bd9653f200f220920489ca2b5937696c31836040516115869190611e7b565b60405180910390a3505050565b61159e848484610fad565b6115aa848484846119fc565b6115e9576040517f08c379a00000000000000000000000000000000000000000000000000000000081526004016115e090612b5e565b60405180910390fd5b50505050565b606060405180602001604052806000815250905090565b606061161182610dfe565b600061161b6115ef565b9050600081511161163b5760405180602001604052806000815250611666565b8061164584611b83565b6040516020016116569291906127ce565b6040516020818303038152906040525b915050919050565b600073ffffffffffffffffffffffffffffffffffffffff168273ffffffffffffffffffffffffffffffffffffffff16036116dd576040517f08c379a00000000000000000000000000000000000000000000000000000000081526004016116d490612bca565b60405180910390fd5b6116e6816119af565b15611726576040517f08c379a000000000000000000000000000000000000000000000000000000000815260040161171d90612c36565b60405180910390fd5b6117346000838360016119f0565b61173d816119af565b1561177d576040517f08c379a000000000000000000000000000000000000000000000000000000000815260040161177490612c36565b60405180910390fd5b6001600360008473ffffffffffffffffffffffffffffffffffffffff1673ffffffffffffffffffffffffffffffffffffffff16815260200190815260200160002060008282540192505081905550816002600083815260200190815260200160002060006101000a81548173ffffffffffffffffffffffffffffffffffffffff021916908373ffffffffffffffffffffffffffffffffffffffff160217905550808273ffffffffffffffffffffffffffffffffffffffff16600073ffffffffffffffffffffffffffffffffffffffff167fddf252ad1be2c89b69c2b068fc378daa952ba7f163c4a11628f55a4df523b3ef60405160405180910390a46118876000838360016119f6565b5050565b611894826119af565b6118d3576040517f08c379a00000000000000000000000000000000000000000000000000000000081526004016118ca90612cc8565b60405180910390fd5b806006600084815260200190815260200160002090816118f39190612e94565b507ff8e1a15aba9398e019f0b49df1a4fde98ee17ae345cb5f6b5e2c27f5033e8ce7826040516119239190612082565b60405180910390a15050565b6001816000016000828254019250508190555050565b60007f01ffc9a7000000000000000000000000000000000000000000000000000000007bffffffffffffffffffffffffffffffffffffffffffffffffffffffff1916827bffffffffffffffffffffffffffffffffffffffffffffffffffffffff1916149050919050565b60008073ffffffffffffffffffffffffffffffffffffffff166119d183611324565b73ffffffffffffffffffffffffffffffffffffffff1614159050919050565b50505050565b50505050565b6000611a1d8473ffffffffffffffffffffffffffffffffffffffff16611c51565b15611b76578373ffffffffffffffffffffffffffffffffffffffff1663150b7a02611a46610e49565b8786866040518563ffffffff1660e01b8152600401611a689493929190612fbb565b6020604051808303816000875af1925050508015611aa457506040513d601f19601f82011682018060405250810190611aa1919061301c565b60015b611b26573d8060008114611ad4576040519150601f19603f3d011682016040523d82523d6000602084013e611ad9565b606091505b506000815103611b1e576040517f08c379a0000000000000000000000000000000000000000000000000000000008152600401611b1590612b5e565b60405180910390fd5b805181602001fd5b63150b7a0260e01b7bffffffffffffffffffffffffffffffffffffffffffffffffffffffff1916817bffffffffffffffffffffffffffffffffffffffffffffffffffffffff191614915050611b7b565b600190505b949350505050565b606060006001611b9284611c74565b01905060008167ffffffffffffffff811115611bb157611bb0612193565b5b6040519080825280601f01601f191660200182016040528015611be35781602001600182028036833780820191505090505b509050600082602001820190505b600115611c46578080600190039150507f3031323334353637383961626364656600000000000000000000000000000000600a86061a8153600a8581611c3a57611c39613049565b5b04945060008503611bf1575b819350505050919050565b6000808273ffffffffffffffffffffffffffffffffffffffff163b119050919050565b600080600090507a184f03e93ff9f4daa797ed6e38ed64bf6a1f0100000000000000008310611cd2577a184f03e93ff9f4daa797ed6e38ed64bf6a1f0100000000000000008381611cc857611cc7613049565b5b0492506040810190505b6d04ee2d6d415b85acef81000000008310611d0f576d04ee2d6d415b85acef81000000008381611d0557611d04613049565b5b0492506020810190505b662386f26fc100008310611d3e57662386f26fc100008381611d3457611d33613049565b5b0492506010810190505b6305f5e1008310611d67576305f5e1008381611d5d57611d5c613049565b5b0492506008810190505b6127108310611d8c576127108381611d8257611d81613049565b5b0492506004810190505b60648310611daf5760648381611da557611da4613049565b5b0492506002810190505b600a8310611dbe576001810190505b80915050919050565b6000604051905090565b600080fd5b600080fd5b60007fffffffff0000000000000000000000000000000000000000000000000000000082169050919050565b611e1081611ddb565b8114611e1b57600080fd5b50565b600081359050611e2d81611e07565b92915050565b600060208284031215611e4957611e48611dd1565b5b6000611e5784828501611e1e565b91505092915050565b60008115159050919050565b611e7581611e60565b82525050565b6000602082019050611e906000830184611e6c565b92915050565b600081519050919050565b600082825260208201905092915050565b60005b83811015611ed0578082015181840152602081019050611eb5565b60008484015250505050565b6000601f19601f8301169050919050565b6000611ef882611e96565b611f028185611ea1565b9350611f12818560208601611eb2565b611f1b81611edc565b840191505092915050565b60006020820190508181036000830152611f408184611eed565b905092915050565b6000819050919050565b611f5b81611f48565b8114611f6657600080fd5b50565b600081359050611f7881611f52565b92915050565b600060208284031215611f9457611f93611dd1565b5b6000611fa284828501611f69565b91505092915050565b600073ffffffffffffffffffffffffffffffffffffffff82169050919050565b6000611fd682611fab565b9050919050565b611fe681611fcb565b82525050565b60006020820190506120016000830184611fdd565b92915050565b61201081611fcb565b811461201b57600080fd5b50565b60008135905061202d81612007565b92915050565b6000806040838503121561204a57612049611dd1565b5b60006120588582860161201e565b925050602061206985828601611f69565b9150509250929050565b61207c81611f48565b82525050565b60006020820190506120976000830184612073565b92915050565b6000806000606084860312156120b6576120b5611dd1565b5b60006120c48682870161201e565b93505060206120d58682870161201e565b92505060406120e686828701611f69565b9150509250925092565b60006020828403121561210657612105611dd1565b5b60006121148482850161201e565b91505092915050565b61212681611e60565b811461213157600080fd5b50565b6000813590506121438161211d565b92915050565b600080604083850312156121605761215f611dd1565b5b600061216e8582860161201e565b925050602061217f85828601612134565b9150509250929050565b600080fd5b600080fd5b7f4e487b7100000000000000000000000000000000000000000000000000000000600052604160045260246000fd5b6121cb82611edc565b810181811067ffffffffffffffff821117156121ea576121e9612193565b5b80604052505050565b60006121fd611dc7565b905061220982826121c2565b919050565b600067ffffffffffffffff82111561222957612228612193565b5b61223282611edc565b9050602081019050919050565b82818337600083830152505050565b600061226161225c8461220e565b6121f3565b90508281526020810184848401111561227d5761227c61218e565b5b61228884828561223f565b509392505050565b600082601f8301126122a5576122a4612189565b5b81356122b584826020860161224e565b91505092915050565b600080600080608085870312156122d8576122d7611dd1565b5b60006122e68782880161201e565b94505060206122f78782880161201e565b935050604061230887828801611f69565b925050606085013567ffffffffffffffff81111561232957612328611dd6565b5b61233587828801612290565b91505092959194509250565b600067ffffffffffffffff82111561235c5761235b612193565b5b61236582611edc565b9050602081019050919050565b600061238561238084612341565b6121f3565b9050828152602081018484840111156123a1576123a061218e565b5b6123ac84828561223f565b509392505050565b600082601f8301126123c9576123c8612189565b5b81356123d9848260208601612372565b91505092915050565b600080604083850312156123f9576123f8611dd1565b5b60006124078582860161201e565b925050602083013567ffffffffffffffff81111561242857612427611dd6565b5b612434858286016123b4565b9150509250929050565b6000806040838503121561245557612454611dd1565b5b60006124638582860161201e565b92505060206124748582860161201e565b9150509250929050565b7f4e487b7100000000000000000000000000000000000000000000000000000000600052602260045260246000fd5b600060028204905060018216806124c557607f821691505b6020821081036124d8576124d761247e565b5b50919050565b7f4552433732313a20617070726f76616c20746f2063757272656e74206f776e6560008201527f7200000000000000000000000000000000000000000000000000000000000000602082015250565b600061253a602183611ea1565b9150612545826124de565b604082019050919050565b600060208201905081810360008301526125698161252d565b9050919050565b7f4552433732313a20617070726f76652063616c6c6572206973206e6f7420746f60008201527f6b656e206f776e6572206f7220617070726f76656420666f7220616c6c000000602082015250565b60006125cc603d83611ea1565b91506125d782612570565b604082019050919050565b600060208201905081810360008301526125fb816125bf565b9050919050565b7f4552433732313a2063616c6c6572206973206e6f7420746f6b656e206f776e6560008201527f72206f7220617070726f76656400000000000000000000000000000000000000602082015250565b600061265e602d83611ea1565b915061266982612602565b604082019050919050565b6000602082019050818103600083015261268d81612651565b9050919050565b7f4552433732313a20696e76616c696420746f6b656e2049440000000000000000600082015250565b60006126ca601883611ea1565b91506126d582612694565b602082019050919050565b600060208201905081810360008301526126f9816126bd565b9050919050565b7f4552433732313a2061646472657373207a65726f206973206e6f74206120766160008201527f6c6964206f776e65720000000000000000000000000000000000000000000000602082015250565b600061275c602983611ea1565b915061276782612700565b604082019050919050565b6000602082019050818103600083015261278b8161274f565b9050919050565b600081905092915050565b60006127a882611e96565b6127b28185612792565b93506127c2818560208601611eb2565b80840191505092915050565b60006127da828561279d565b91506127e6828461279d565b91508190509392505050565b7f496e73756666696369656e742045746865722073656e74000000000000000000600082015250565b6000612828601783611ea1565b9150612833826127f2565b602082019050919050565b600060208201905081810360008301526128578161281b565b9050919050565b7f4f776e61626c653a206e6577206f776e657220697320746865207a65726f206160008201527f6464726573730000000000000000000000000000000000000000000000000000602082015250565b60006128ba602683611ea1565b91506128c58261285e565b604082019050919050565b600060208201905081810360008301526128e9816128ad565b9050919050565b7f4552433732313a207472616e736665722066726f6d20696e636f72726563742060008201527f6f776e6572000000000000000000000000000000000000000000000000000000602082015250565b600061294c602583611ea1565b9150612957826128f0565b604082019050919050565b6000602082019050818103600083015261297b8161293f565b9050919050565b7f4552433732313a207472616e7366657220746f20746865207a65726f2061646460008201527f7265737300000000000000000000000000000000000000000000000000000000602082015250565b60006129de602483611ea1565b91506129e982612982565b604082019050919050565b60006020820190508181036000830152612a0d816129d1565b9050919050565b7f4f776e61626c653a2063616c6c6572206973206e6f7420746865206f776e6572600082015250565b6000612a4a602083611ea1565b9150612a5582612a14565b602082019050919050565b60006020820190508181036000830152612a7981612a3d565b9050919050565b7f4552433732313a20617070726f766520746f2063616c6c657200000000000000600082015250565b6000612ab6601983611ea1565b9150612ac182612a80565b602082019050919050565b60006020820190508181036000830152612ae581612aa9565b9050919050565b7f4552433732313a207472616e7366657220746f206e6f6e20455243373231526560008201527f63656976657220696d706c656d656e7465720000000000000000000000000000602082015250565b6000612b48603283611ea1565b9150612b5382612aec565b604082019050919050565b60006020820190508181036000830152612b7781612b3b565b9050919050565b7f4552433732313a206d696e7420746f20746865207a65726f2061646472657373600082015250565b6000612bb4602083611ea1565b9150612bbf82612b7e565b602082019050919050565b60006020820190508181036000830152612be381612ba7565b9050919050565b7f4552433732313a20746f6b656e20616c7265616479206d696e74656400000000600082015250565b6000612c20601c83611ea1565b9150612c2b82612bea565b602082019050919050565b60006020820190508181036000830152612c4f81612c13565b9050919050565b7f45524337323155524953746f726167653a2055524920736574206f66206e6f6e60008201527f6578697374656e7420746f6b656e000000000000000000000000000000000000602082015250565b6000612cb2602e83611ea1565b9150612cbd82612c56565b604082019050919050565b60006020820190508181036000830152612ce181612ca5565b9050919050565b60008190508160005260206000209050919050565b60006020601f8301049050919050565b600082821b905092915050565b600060088302612d4a7fffffffffffffffffffffffffffffffffffffffffffffffffffffffffffffffff82612d0d565b612d548683612d0d565b95508019841693508086168417925050509392505050565b6000819050919050565b6000612d91612d8c612d8784611f48565b612d6c565b611f48565b9050919050565b6000819050919050565b612dab83612d76565b612dbf612db782612d98565b848454612d1a565b825550505050565b600090565b612dd4612dc7565b612ddf818484612da2565b505050565b5b81811015612e0357612df8600082612dcc565b600181019050612de5565b5050565b601f821115612e4857612e1981612ce8565b612e2284612cfd565b81016020851015612e31578190505b612e45612e3d85612cfd565b830182612de4565b50505b505050565b600082821c905092915050565b6000612e6b60001984600802612e4d565b1980831691505092915050565b6000612e848383612e5a565b9150826002028217905092915050565b612e9d82611e96565b67ffffffffffffffff811115612eb657612eb5612193565b5b612ec082546124ad565b612ecb828285612e07565b600060209050601f831160018114612efe5760008415612eec578287015190505b612ef68582612e78565b865550612f5e565b601f198416612f0c86612ce8565b60005b82811015612f3457848901518255600182019150602085019450602081019050612f0f565b86831015612f515784890151612f4d601f891682612e5a565b8355505b6001600288020188555050505b505050505050565b600081519050919050565b600082825260208201905092915050565b6000612f8d82612f66565b612f978185612f71565b9350612fa7818560208601611eb2565b612fb081611edc565b840191505092915050565b6000608082019050612fd06000830187611fdd565b612fdd6020830186611fdd565b612fea6040830185612073565b8181036060830152612ffc8184612f82565b905095945050505050565b60008151905061301681611e07565b92915050565b60006020828403121561303257613031611dd1565b5b600061304084828501613007565b91505092915050565b7f4e487b7100000000000000000000000000000000000000000000000000000000600052601260045260246000fdfea2646970667358221220ac1a475075cdc63e2e04317e8ac16f72b16c1b6af86483d864bacb8c8c14714b64736f6c63430008120033",
  "linkReferences": {},
  "deployedLinkReferences": {}
}