{
  "_format": "hh-sol-artifact-1",
  "contractName": "OnchainSummerPFP",
  "sourceName": "contracts/OnchainSummerPFP.sol",
  "abi": [
    {
      "inputs": [],
      "stateMutability": "nonpayable",
      "type": "constructor"
    },
    {
      "anonymous": false,
      "inputs": [
        {
          "indexed": true,
          "internalType": "address",
          "name": "owner",
          "type": "address"
        },
        {
          "indexed": true,
          "internalType": "address",
          "name": "approved",
          "type": "address"
        },
        {
          "indexed": true,
          "internalType": "uint256",
          "name": "tokenId",
          "type": "uint256"
        }
      ],
      "name": "Approval",
      "type": "event"
    },
    {
      "anonymous": false,
      "inputs": [
        {
          "indexed": true,
          "internalType": "address",
          "name": "owner",
          "type": "address"
        },
        {
          "indexed": true,
          "internalType": "address",
          "name": "operator",
          "type": "address"
        },
        {
          "indexed": false,
          "internalType": "bool",
          "name": "approved",
          "type": "bool"
        }
      ],
      "name": "ApprovalForAll",
      "type": "event"
    },
    {
      "anonymous": false,
      "inputs": [
        {
          "indexed": false,
          "internalType": "uint256",
          "name": "_fromTokenId",
          "type": "uint256"
        },
        {
          "indexed": false,
          "internalType": "uint256",
          "name": "_toTokenId",
          "type": "uint256"
        }
      ],
      "name": "BatchMetadataUpdate",
      "type": "event"
    },
    {
      "anonymous": false,
      "inputs": [
        {
          "indexed": false,
          "internalType": "uint256",
          "name": "_tokenId",
          "type": "uint256"
        }
      ],
      "name": "MetadataUpdate",
      "type": "event"
    },
    {
      "anonymous": false,
      "inputs": [
        {
          "indexed": true,
          "internalType": "address",
          "name": "previousOwner",
          "type": "address"
        },
        {
          "indexed": true,
          "internalType": "address",
          "name": "newOwner",
          "type": "address"
        }
      ],
      "name": "OwnershipTransferred",
      "type": "event"
    },
    {
      "anonymous": false,
      "inputs": [
        {
          "indexed": true,
          "internalType": "address",
          "name": "from",
          "type": "address"
        },
        {
          "indexed": true,
          "internalType": "address",
          "name": "to",
          "type": "address"
        },
        {
          "indexed": true,
          "internalType": "uint256",
          "name": "tokenId",
          "type": "uint256"
        }
      ],
      "name": "Transfer",
      "type": "event"
    },
    {
      "inputs": [],
      "name": "MAX_SUPPLY",
      "outputs": [
        {
          "internalType": "uint256",
          "name": "",
          "type": "uint256"
        }
      ],
      "stateMutability": "view",
      "type": "function"
    },
    {
      "inputs": [],
      "name": "MINT_PRICE",
      "outputs": [
        {
          "internalType": "uint256",
          "name": "",
          "type": "uint256"
        }
      ],
      "stateMutability": "view",
      "type": "function"
    },
    {
      "inputs": [
        {
          "internalType": "address",
          "name": "to",
          "type": "address"
        },
        {
          "internalType": "uint256",
          "name": "tokenId",
          "type": "uint256"
        }
      ],
      "name": "approve",
      "outputs": [],
      "stateMutability": "nonpayable",
      "type": "function"
    },
    {
      "inputs": [
        {
          "internalType": "address",
          "name": "owner",
          "type": "address"
        }
      ],
      "name": "balanceOf",
      "outputs": [
        {
          "internalType": "uint256",
          "name": "",
          "type": "uint256"
        }
      ],
      "stateMutability": "view",
      "type": "function"
    },
    {
      "inputs": [
        {
          "internalType": "uint256",
          "name": "tokenId",
          "type": "uint256"
        }
      ],
      "name": "getApproved",
      "outputs": [
        {
          "internalType": "address",
          "name": "",
          "type": "address"
        }
      ],
      "stateMutability": "view",
      "type": "function"
    },
    {
      "inputs": [
        {
          "internalType": "address",
          "name": "owner",
          "type": "address"
        },
        {
          "internalType": "address",
          "name": "operator",
          "type": "address"
        }
      ],
      "name": "isApprovedForAll",
      "outputs": [
        {
          "internalType": "bool",
          "name": "",
          "type": "bool"
        }
      ],
      "stateMutability": "view",
      "type": "function"
    },
    {
      "inputs": [
        {
          "internalType": "address",
          "name": "to",
          "type": "address"
        },
        {
          "internalType": "string",
          "name": "tokenURI",
          "type": "string"
        }
      ],
      "name": "mint",
      "outputs": [],
      "stateMutability": "payable",
      "type": "function"
    },
    {
      "inputs": [],
      "name": "name",
      "outputs": [
        {
          "internalType": "string",
          "name": "",
          "type": "string"
        }
      ],
      "stateMutability": "view",
      "type": "function"
    },
    {
      "inputs": [],
      "name": "owner",
      "outputs": [
        {
          "internalType": "address",
          "name": "",
          "type": "address"
        }
      ],
      "stateMutability": "view",
      "type": "function"
    },
    {
      "inputs": [
        {
          "internalType": "uint256",
          "name": "tokenId",
          "type": "uint256"
        }
      ],
      "name": "ownerOf",
      "outputs": [
        {
          "internalType": "address",
          "name": "",
          "type": "address"
        }
      ],
      "stateMutability": "view",
      "type": "function"
    },
    {
      "inputs": [],
      "name": "renounceOwnership",
      "outputs": [],
      "stateMutability": "nonpayable",
      "type": "function"
    },
    {
      "inputs": [
        {
          "internalType": "address",
          "name": "from",
          "type": "address"
        },
        {
          "internalType": "address",
          "name": "to",
          "type": "address"
        },
        {
          "internalType": "uint256",
          "name": "tokenId",
          "type": "uint256"
        }
      ],
      "name": "safeTransferFrom",
      "outputs": [],
      "stateMutability": "nonpayable",
      "type": "function"
    },
    {
      "inputs": [
        {
          "internalType": "address",
          "name": "from",
          "type": "address"
        },
        {
          "internalType": "address",
          "name": "to",
          "type": "address"
        },
        {
          "internalType": "uint256",
          "name": "tokenId",
          "type": "uint256"
        },
        {
          "internalType": "bytes",
          "name": "data",
          "type": "bytes"
        }
      ],
      "name": "safeTransferFrom",
      "outputs": [],
      "stateMutability": "nonpayable",
      "type": "function"
    },
    {
      "inputs": [
        {
          "internalType": "address",
          "name": "operator",
          "type": "address"
        },
        {
          "internalType": "bool",
          "name": "approved",
          "type": "bool"
        }
      ],
      "name": "setApprovalForAll",
      "outputs": [],
      "stateMutability": "nonpayable",
      "type": "function"
    },
    {
      "inputs": [
        {
          "internalType": "bytes4",
          "name": "interfaceId",
          "type": "bytes4"
        }
      ],
      "name": "supportsInterface",
      "outputs": [
        {
          "internalType": "bool",
          "name": "",
          "type": "bool"
        }
      ],
      "stateMutability": "view",
      "type": "function"
    },
    {
      "inputs": [],
      "name": "symbol",
      "outputs": [
        {
          "internalType": "string",
          "name": "",
          "type": "string"
        }
      ],
      "stateMutability": "view",
      "type": "function"
    },
    {
      "inputs": [
        {
          "internalType": "uint256",
          "name": "tokenId",
          "type": "uint256"
        }
      ],
      "name": "tokenURI",
      "outputs": [
        {
          "internalType": "string",
          "name": "",
          "type": "string"
        }
      ],
      "stateMutability": "view",
      "type": "function"
    },
    {
      "inputs": [],
      "name": "totalSupply",
      "outputs": [
        {
          "internalType": "uint256",
          "name": "",
          "type": "uint256"
        }
      ],
      "stateMutability": "view",
      "type": "function"
    },
    {
      "inputs": [
        {
          "internalType": "address",
          "name": "from",
          "type": "address"
        },
        {
          "internalType": "address",
          "name": "to",
          "type": "address"
        },
        {
          "internalType": "uint256",
          "name": "tokenId",
          "type": "uint256"
        }
      ],
      "name": "transferFrom",
      "outputs": [],
      "stateMutability": "nonpayable",
      "type": "function"
    },
    {
      "inputs": [
        {
          "internalType": "address",
          "name": "newOwner",
          "type": "address"
        }
      ],
      "name": "transferOwnership",
      "outputs": [],
      "stateMutability": "nonpayable",
      "type": "function"
    },
    {
      "inputs": [],
      "name": "withdraw",
      "outputs": [],
      "stateMutability": "nonpayable",
      "type": "function"
    }
  ],
  "bytecode": "0x60806040523480156200001157600080fd5b506040518060400160405280601281526020017f4f6e636861696e2053756d6d65722050465000000000000000000000000000008152506040518060400160405280601081526020017f4f6e636861696e53756d6d65725046500000000000000000000000000000000081525081600090816200008f919062000412565b508060019081620000a1919062000412565b505050620000c4620000b8620000ca60201b60201c565b620000d260201b60201c565b620004f9565b600033905090565b6000600760009054906101000a900473ffffffffffffffffffffffffffffffffffffffff16905081600760006101000a81548173ffffffffffffffffffffffffffffffffffffffff021916908373ffffffffffffffffffffffffffffffffffffffff1602179055508173ffffffffffffffffffffffffffffffffffffffff168173ffffffffffffffffffffffffffffffffffffffff167f8be0079c531659141344cd1fd0a4f28419497f9722a3daafe3b4186f6b6457e060405160405180910390a35050565b600081519050919050565b7f4e487b7100000000000000000000000000000000000000000000000000000000600052604160045260246000fd5b7f4e487b7100000000000000000000000000000000000000000000000000000000600052602260045260246000fd5b600060028204905060018216806200021a57607f821691505b60208210810362000230576200022f620001d2565b5b50919050565b60008190508160005260206000209050919050565b60006020601f8301049050919050565b600082821b905092915050565b6000600883026200029a7fffffffffffffffffffffffffffffffffffffffffffffffffffffffffffffffff826200025b565b620002a686836200025b565b95508019841693508086168417925050509392505050565b6000819050919050565b6000819050919050565b6000620002f3620002ed620002e784620002be565b620002c8565b620002be565b9050919050565b6000819050919050565b6200030f83620002d2565b620003276200031e82620002fa565b84845462000268565b825550505050565b600090565b6200033e6200032f565b6200034b81848462000304565b505050565b5b8181101562000373576200036760008262000334565b60018101905062000351565b5050565b601f821115620003c2576200038c8162000236565b62000397846200024b565b81016020851015620003a7578190505b620003bf620003b6856200024b565b83018262000350565b50505b505050565b600082821c905092915050565b6000620003e760001984600802620003c7565b1980831691505092915050565b6000620004028383620003d4565b9150826002028217905092915050565b6200041d8262000198565b67ffffffffffffffff811115620004395762000438620001a3565b5b62000445825462000201565b6200045282828562000377565b600060209050601f8311600181146200048a576000841562000475578287015190505b620004818582620003f4565b865550620004f1565b601f1984166200049a8662000236565b60005b82811015620004c4578489015182556001820191506020850194506020810190506200049d565b86831015620004e45784890151620004e0601f891682620003d4565b8355505b6001600288020188555050505b505050505050565b6131a380620005096000396000f3fe60806040526004361061012a5760003560e01c806370a08231116100ab578063b88d4fde1161006f578063b88d4fde146103cc578063c002d23d146103f5578063c87b56dd14610420578063d0def5211461045d578063e985e9c514610479578063f2fde38b146104b65761012a565b806370a08231146102f9578063715018a6146103365780638da5cb5b1461034d57806395d89b4114610378578063a22cb465146103a35761012a565b806323b872dd116100f257806323b872dd1461022857806332cb6b0c146102515780633ccfd60b1461027c57806342842e0e146102935780636352211e146102bc5761012a565b806301ffc9a71461012f57806306fdde031461016c578063081812fc14610197578063095ea7b3146101d457806318160ddd146101fd575b600080fd5b34801561013b57600080fd5b5061015660048036038101906101519190611ebc565b6104df565b6040516101639190611f04565b60405180910390f35b34801561017857600080fd5b50610181610540565b60405161018e9190611faf565b60405180910390f35b3480156101a357600080fd5b506101be60048036038101906101b99190612007565b6105d2565b6040516101cb9190612075565b60405180910390f35b3480156101e057600080fd5b506101fb60048036038101906101f691906120bc565b610618565b005b34801561020957600080fd5b5061021261072f565b60405161021f919061210b565b60405180910390f35b34801561023457600080fd5b5061024f600480360381019061024a9190612126565b610740565b005b34801561025d57600080fd5b506102666107a0565b604051610273919061210b565b60405180910390f35b34801561028857600080fd5b506102916107a6565b005b34801561029f57600080fd5b506102ba60048036038101906102b59190612126565b610804565b005b3480156102c857600080fd5b506102e360048036038101906102de9190612007565b610824565b6040516102f09190612075565b60405180910390f35b34801561030557600080fd5b50610320600480360381019061031b9190612179565b6108aa565b60405161032d919061210b565b60405180910390f35b34801561034257600080fd5b5061034b610961565b005b34801561035957600080fd5b50610362610975565b60405161036f9190612075565b60405180910390f35b34801561038457600080fd5b5061038d61099f565b60405161039a9190611faf565b60405180910390f35b3480156103af57600080fd5b506103ca60048036038101906103c591906121d2565b610a31565b005b3480156103d857600080fd5b506103f360048036038101906103ee9190612347565b610a47565b005b34801561040157600080fd5b5061040a610aa9565b604051610417919061210b565b60405180910390f35b34801561042c57600080fd5b5061044760048036038101906104429190612007565b610ab4565b6040516104549190611faf565b60405180910390f35b6104776004803603810190610472919061246b565b610bc6565b005b34801561048557600080fd5b506104a0600480360381019061049b91906124c7565b610c8e565b6040516104ad9190611f04565b60405180910390f35b3480156104c257600080fd5b506104dd60048036038101906104d89190612179565b610d22565b005b6000634906490660e01b7bffffffffffffffffffffffffffffffffffffffffffffffffffffffff1916827bffffffffffffffffffffffffffffffffffffffffffffffffffffffff19161480610539575061053882610da5565b5b9050919050565b60606000805461054f90612536565b80601f016020809104026020016040519081016040528092919081815260200182805461057b90612536565b80156105c85780601f1061059d576101008083540402835291602001916105c8565b820191906000526020600020905b8154815290600101906020018083116105ab57829003601f168201915b5050505050905090565b60006105dd82610e87565b6004600083815260200190815260200160002060009054906101000a900473ffffffffffffffffffffffffffffffffffffffff169050919050565b600061062382610824565b90508073ffffffffffffffffffffffffffffffffffffffff168373ffffffffffffffffffffffffffffffffffffffff1603610693576040517f08c379a000000000000000000000000000000000000000000000000000000000815260040161068a906125d9565b60405180910390fd5b8073ffffffffffffffffffffffffffffffffffffffff166106b2610ed2565b73ffffffffffffffffffffffffffffffffffffffff1614806106e157506106e0816106db610ed2565b610c8e565b5b610720576040517f08c379a00000000000000000000000000000000000000000000000000000000081526004016107179061266b565b60405180910390fd5b61072a8383610eda565b505050565b600061073b6008610f93565b905090565b61075161074b610ed2565b82610fa1565b610790576040517f08c379a0000000000000000000000000000000000000000000000000000000008152600401610787906126fd565b60405180910390fd5b61079b838383611036565b505050565b61271081565b6107ae61132f565b60004790506107bb610975565b73ffffffffffffffffffffffffffffffffffffffff166108fc829081150290604051600060405180830381858888f19350505050158015610800573d6000803e3d6000fd5b5050565b61081f83838360405180602001604052806000815250610a47565b505050565b600080610830836113ad565b9050600073ffffffffffffffffffffffffffffffffffffffff168173ffffffffffffffffffffffffffffffffffffffff16036108a1576040517f08c379a000000000000000000000000000000000000000000000000000000000815260040161089890612769565b60405180910390fd5b80915050919050565b60008073ffffffffffffffffffffffffffffffffffffffff168273ffffffffffffffffffffffffffffffffffffffff160361091a576040517f08c379a0000000000000000000000000000000000000000000000000000000008152600401610911906127fb565b60405180910390fd5b600360008373ffffffffffffffffffffffffffffffffffffffff1673ffffffffffffffffffffffffffffffffffffffff168152602001908152602001600020549050919050565b61096961132f565b61097360006113ea565b565b6000600760009054906101000a900473ffffffffffffffffffffffffffffffffffffffff16905090565b6060600180546109ae90612536565b80601f01602080910402602001604051908101604052809291908181526020018280546109da90612536565b8015610a275780601f106109fc57610100808354040283529160200191610a27565b820191906000526020600020905b815481529060010190602001808311610a0a57829003601f168201915b5050505050905090565b610a43610a3c610ed2565b83836114b0565b5050565b610a58610a52610ed2565b83610fa1565b610a97576040517f08c379a0000000000000000000000000000000000000000000000000000000008152600401610a8e906126fd565b60405180910390fd5b610aa38484848461161c565b50505050565b662386f26fc1000081565b6060610abf82610e87565b6000600660008481526020019081526020016000208054610adf90612536565b80601f0160208091040260200160405190810160405280929190818152602001828054610b0b90612536565b8015610b585780601f10610b2d57610100808354040283529160200191610b58565b820191906000526020600020905b815481529060010190602001808311610b3b57829003601f168201915b505050505090506000610b69611678565b90506000815103610b7e578192505050610bc1565b600082511115610bb3578082604051602001610b9b929190612857565b60405160208183030381529060405292505050610bc1565b610bbc8461168f565b925050505b919050565b612710610bd36008610f93565b10610c13576040517f08c379a0000000000000000000000000000000000000000000000000000000008152600401610c0a906128c7565b60405180910390fd5b662386f26fc10000341015610c5d576040517f08c379a0000000000000000000000000000000000000000000000000000000008152600401610c5490612933565b60405180910390fd5b6000610c696008610f93565b9050610c7583826116f7565b610c7f8183611914565b610c8960086119b8565b505050565b6000600560008473ffffffffffffffffffffffffffffffffffffffff1673ffffffffffffffffffffffffffffffffffffffff16815260200190815260200160002060008373ffffffffffffffffffffffffffffffffffffffff1673ffffffffffffffffffffffffffffffffffffffff16815260200190815260200160002060009054906101000a900460ff16905092915050565b610d2a61132f565b600073ffffffffffffffffffffffffffffffffffffffff168173ffffffffffffffffffffffffffffffffffffffff1603610d99576040517f08c379a0000000000000000000000000000000000000000000000000000000008152600401610d90906129c5565b60405180910390fd5b610da2816113ea565b50565b60007f80ac58cd000000000000000000000000000000000000000000000000000000007bffffffffffffffffffffffffffffffffffffffffffffffffffffffff1916827bffffffffffffffffffffffffffffffffffffffffffffffffffffffff19161480610e7057507f5b5e139f000000000000000000000000000000000000000000000000000000007bffffffffffffffffffffffffffffffffffffffffffffffffffffffff1916827bffffffffffffffffffffffffffffffffffffffffffffffffffffffff1916145b80610e805750610e7f826119ce565b5b9050919050565b610e9081611a38565b610ecf576040517f08c379a0000000000000000000000000000000000000000000000000000000008152600401610ec690612769565b60405180910390fd5b50565b600033905090565b816004600083815260200190815260200160002060006101000a81548173ffffffffffffffffffffffffffffffffffffffff021916908373ffffffffffffffffffffffffffffffffffffffff160217905550808273ffffffffffffffffffffffffffffffffffffffff16610f4d83610824565b73ffffffffffffffffffffffffffffffffffffffff167f8c5be1e5ebec7d5bd14f71427d1e84f3dd0314c0f7b2291e5b200ac8c7c3b92560405160405180910390a45050565b600081600001549050919050565b600080610fad83610824565b90508073ffffffffffffffffffffffffffffffffffffffff168473ffffffffffffffffffffffffffffffffffffffff161480610fef5750610fee8185610c8e565b5b8061102d57508373ffffffffffffffffffffffffffffffffffffffff16611015846105d2565b73ffffffffffffffffffffffffffffffffffffffff16145b91505092915050565b8273ffffffffffffffffffffffffffffffffffffffff1661105682610824565b73ffffffffffffffffffffffffffffffffffffffff16146110ac576040517f08c379a00000000000000000000000000000000000000000000000000000000081526004016110a390612a57565b60405180910390fd5b600073ffffffffffffffffffffffffffffffffffffffff168273ffffffffffffffffffffffffffffffffffffffff160361111b576040517f08c379a000000000000000000000000000000000000000000000000000000000815260040161111290612ae9565b60405180910390fd5b6111288383836001611a79565b8273ffffffffffffffffffffffffffffffffffffffff1661114882610824565b73ffffffffffffffffffffffffffffffffffffffff161461119e576040517f08c379a000000000000000000000000000000000000000000000000000000000815260040161119590612a57565b60405180910390fd5b6004600082815260200190815260200160002060006101000a81549073ffffffffffffffffffffffffffffffffffffffff02191690556001600360008573ffffffffffffffffffffffffffffffffffffffff1673ffffffffffffffffffffffffffffffffffffffff168152602001908152602001600020600082825403925050819055506001600360008473ffffffffffffffffffffffffffffffffffffffff1673ffffffffffffffffffffffffffffffffffffffff16815260200190815260200160002060008282540192505081905550816002600083815260200190815260200160002060006101000a81548173ffffffffffffffffffffffffffffffffffffffff021916908373ffffffffffffffffffffffffffffffffffffffff160217905550808273ffffffffffffffffffffffffffffffffffffffff168473ffffffffffffffffffffffffffffffffffffffff167fddf252ad1be2c89b69c2b068fc378daa952ba7f163c4a11628f55a4df523b3ef60405160405180910390a461132a8383836001611a7f565b505050565b611337610ed2565b73ffffffffffffffffffffffffffffffffffffffff16611355610975565b73ffffffffffffffffffffffffffffffffffffffff16146113ab576040517f08c379a00000000000000000000000000000000000000000000000000000000081526004016113a290612b55565b60405180910390fd5b565b60006002600083815260200190815260200160002060009054906101000a900473ffffffffffffffffffffffffffffffffffffffff169050919050565b6000600760009054906101000a900473ffffffffffffffffffffffffffffffffffffffff16905081600760006101000a81548173ffffffffffffffffffffffffffffffffffffffff021916908373ffffffffffffffffffffffffffffffffffffffff1602179055508173ffffffffffffffffffffffffffffffffffffffff168173ffffffffffffffffffffffffffffffffffffffff167f8be0079c531659141344cd1fd0a4f28419497f9722a3daafe3b4186f6b6457e060405160405180910390a35050565b8173ffffffffffffffffffffffffffffffffffffffff168373ffffffffffffffffffffffffffffffffffffffff160361151e576040517f08c379a000000000000000000000000000000000000000000000000000000000815260040161151590612bc1565b60405180910390fd5b80600560008573ffffffffffffffffffffffffffffffffffffffff1673ffffffffffffffffffffffffffffffffffffffff16815260200190815260200160002060008473ffffffffffffffffffffffffffffffffffffffff1673ffffffffffffffffffffffffffffffffffffffff16815260200190815260200160002060006101000a81548160ff0219169083151502179055508173ffffffffffffffffffffffffffffffffffffffff168373ffffffffffffffffffffffffffffffffffffffff167f17307eab39ab6107e8899845ad3d59bd9653f200f220920489ca2b5937696c318360405161160f9190611f04565b60405180910390a3505050565b611627848484611036565b61163384848484611a85565b611672576040517f08c379a000000000000000000000000000000000000000000000000000000000815260040161166990612c53565b60405180910390fd5b50505050565b606060405180602001604052806000815250905090565b606061169a82610e87565b60006116a4611678565b905060008151116116c457604051806020016040528060008152506116ef565b806116ce84611c0c565b6040516020016116df929190612857565b6040516020818303038152906040525b915050919050565b600073ffffffffffffffffffffffffffffffffffffffff168273ffffffffffffffffffffffffffffffffffffffff1603611766576040517f08c379a000000000000000000000000000000000000000000000000000000000815260040161175d90612cbf565b60405180910390fd5b61176f81611a38565b156117af576040517f08c379a00000000000000000000000000000000000000000000000000000000081526004016117a690612d2b565b60405180910390fd5b6117bd600083836001611a79565b6117c681611a38565b15611806576040517f08c379a00000000000000000000000000000000000000000000000000000000081526004016117fd90612d2b565b60405180910390fd5b6001600360008473ffffffffffffffffffffffffffffffffffffffff1673ffffffffffffffffffffffffffffffffffffffff16815260200190815260200160002060008282540192505081905550816002600083815260200190815260200160002060006101000a81548173ffffffffffffffffffffffffffffffffffffffff021916908373ffffffffffffffffffffffffffffffffffffffff160217905550808273ffffffffffffffffffffffffffffffffffffffff16600073ffffffffffffffffffffffffffffffffffffffff167fddf252ad1be2c89b69c2b068fc378daa952ba7f163c4a11628f55a4df523b3ef60405160405180910390a4611910600083836001611a7f565b5050565b61191d82611a38565b61195c576040517f08c379a000000000000000000000000000000000000000000000000000000000815260040161195390612dbd565b60405180910390fd5b8060066000848152602001908152602001600020908161197c9190612f89565b507ff8e1a15aba9398e019f0b49df1a4fde98ee17ae345cb5f6b5e2c27f5033e8ce7826040516119ac919061210b565b60405180910390a15050565b6001816000016000828254019250508190555050565b60007f01ffc9a7000000000000000000000000000000000000000000000000000000007bffffffffffffffffffffffffffffffffffffffffffffffffffffffff1916827bffffffffffffffffffffffffffffffffffffffffffffffffffffffff1916149050919050565b60008073ffffffffffffffffffffffffffffffffffffffff16611a5a836113ad565b73ffffffffffffffffffffffffffffffffffffffff1614159050919050565b50505050565b50505050565b6000611aa68473ffffffffffffffffffffffffffffffffffffffff16611cda565b15611bff578373ffffffffffffffffffffffffffffffffffffffff1663150b7a02611acf610ed2565b8786866040518563ffffffff1660e01b8152600401611af194939291906130b0565b6020604051808303816000875af1925050508015611b2d57506040513d601f19601f82011682018060405250810190611b2a9190613111565b60015b611baf573d8060008114611b5d576040519150601f19603f3d011682016040523d82523d6000602084013e611b62565b606091505b506000815103611ba7576040517f08c379a0000000000000000000000000000000000000000000000000000000008152600401611b9e90612c53565b60405180910390fd5b805181602001fd5b63150b7a0260e01b7bffffffffffffffffffffffffffffffffffffffffffffffffffffffff1916817bffffffffffffffffffffffffffffffffffffffffffffffffffffffff191614915050611c04565b600190505b949350505050565b606060006001611c1b84611cfd565b01905060008167ffffffffffffffff811115611c3a57611c3961221c565b5b6040519080825280601f01601f191660200182016040528015611c6c5781602001600182028036833780820191505090505b509050600082602001820190505b600115611ccf578080600190039150507f3031323334353637383961626364656600000000000000000000000000000000600a86061a8153600a8581611cc357611cc261313e565b5b04945060008503611c7a575b819350505050919050565b6000808273ffffffffffffffffffffffffffffffffffffffff163b119050919050565b600080600090507a184f03e93ff9f4daa797ed6e38ed64bf6a1f0100000000000000008310611d5b577a184f03e93ff9f4daa797ed6e38ed64bf6a1f0100000000000000008381611d5157611d5061313e565b5b0492506040810190505b6d04ee2d6d415b85acef81000000008310611d98576d04ee2d6d415b85acef81000000008381611d8e57611d8d61313e565b5b0492506020810190505b662386f26fc100008310611dc757662386f26fc100008381611dbd57611dbc61313e565b5b0492506010810190505b6305f5e1008310611df0576305f5e1008381611de657611de561313e565b5b0492506008810190505b6127108310611e15576127108381611e0b57611e0a61313e565b5b0492506004810190505b60648310611e385760648381611e2e57611e2d61313e565b5b0492506002810190505b600a8310611e47576001810190505b80915050919050565b6000604051905090565b600080fd5b600080fd5b60007fffffffff0000000000000000000000000000000000000000000000000000000082169050919050565b611e9981611e64565b8114611ea457600080fd5b50565b600081359050611eb681611e90565b92915050565b600060208284031215611ed257611ed1611e5a565b5b6000611ee084828501611ea7565b91505092915050565b60008115159050919050565b611efe81611ee9565b82525050565b6000602082019050611f196000830184611ef5565b92915050565b600081519050919050565b600082825260208201905092915050565b60005b83811015611f59578082015181840152602081019050611f3e565b60008484015250505050565b6000601f19601f8301169050919050565b6000611f8182611f1f565b611f8b8185611f2a565b9350611f9b818560208601611f3b565b611fa481611f65565b840191505092915050565b60006020820190508181036000830152611fc98184611f76565b905092915050565b6000819050919050565b611fe481611fd1565b8114611fef57600080fd5b50565b60008135905061200181611fdb565b92915050565b60006020828403121561201d5761201c611e5a565b5b600061202b84828501611ff2565b91505092915050565b600073ffffffffffffffffffffffffffffffffffffffff82169050919050565b600061205f82612034565b9050919050565b61206f81612054565b82525050565b600060208201905061208a6000830184612066565b92915050565b61209981612054565b81146120a457600080fd5b50565b6000813590506120b681612090565b92915050565b600080604083850312156120d3576120d2611e5a565b5b60006120e1858286016120a7565b92505060206120f285828601611ff2565b9150509250929050565b61210581611fd1565b82525050565b600060208201905061212060008301846120fc565b92915050565b60008060006060848603121561213f5761213e611e5a565b5b600061214d868287016120a7565b935050602061215e868287016120a7565b925050604061216f86828701611ff2565b9150509250925092565b60006020828403121561218f5761218e611e5a565b5b600061219d848285016120a7565b91505092915050565b6121af81611ee9565b81146121ba57600080fd5b50565b6000813590506121cc816121a6565b92915050565b600080604083850312156121e9576121e8611e5a565b5b60006121f7858286016120a7565b9250506020612208858286016121bd565b9150509250929050565b600080fd5b600080fd5b7f4e487b7100000000000000000000000000000000000000000000000000000000600052604160045260246000fd5b61225482611f65565b810181811067ffffffffffffffff821117156122735761227261221c565b5b80604052505050565b6000612286611e50565b9050612292828261224b565b919050565b600067ffffffffffffffff8211156122b2576122b161221c565b5b6122bb82611f65565b9050602081019050919050565b82818337600083830152505050565b60006122ea6122e584612297565b61227c565b90508281526020810184848401111561230657612305612217565b5b6123118482856122c8565b509392505050565b600082601f83011261232e5761232d612212565b5b813561233e8482602086016122d7565b91505092915050565b6000806000806080858703121561236157612360611e5a565b5b600061236f878288016120a7565b9450506020612380878288016120a7565b935050604061239187828801611ff2565b925050606085013567ffffffffffffffff8111156123b2576123b1611e5f565b5b6123be87828801612319565b91505092959194509250565b600067ffffffffffffffff8211156123e5576123e461221c565b5b6123ee82611f65565b9050602081019050919050565b600061240e612409846123ca565b61227c565b90508281526020810184848401111561242a57612429612217565b5b6124358482856122c8565b509392505050565b600082601f83011261245257612451612212565b5b81356124628482602086016123fb565b91505092915050565b6000806040838503121561248257612481611e5a565b5b6000612490858286016120a7565b925050602083013567ffffffffffffffff8111156124b1576124b0611e5f565b5b6124bd8582860161243d565b9150509250929050565b600080604083850312156124de576124dd611e5a565b5b60006124ec858286016120a7565b92505060206124fd858286016120a7565b9150509250929050565b7f4e487b7100000000000000000000000000000000000000000000000000000000600052602260045260246000fd5b6000600282049050600182168061254e57607f821691505b60208210810361256157612560612507565b5b50919050565b7f4552433732313a20617070726f76616c20746f2063757272656e74206f776e6560008201527f7200000000000000000000000000000000000000000000000000000000000000602082015250565b60006125c3602183611f2a565b91506125ce82612567565b604082019050919050565b600060208201905081810360008301526125f2816125b6565b9050919050565b7f4552433732313a20617070726f76652063616c6c6572206973206e6f7420746f60008201527f6b656e206f776e6572206f7220617070726f76656420666f7220616c6c000000602082015250565b6000612655603d83611f2a565b9150612660826125f9565b604082019050919050565b6000602082019050818103600083015261268481612648565b9050919050565b7f4552433732313a2063616c6c6572206973206e6f7420746f6b656e206f776e6560008201527f72206f7220617070726f76656400000000000000000000000000000000000000602082015250565b60006126e7602d83611f2a565b91506126f28261268b565b604082019050919050565b60006020820190508181036000830152612716816126da565b9050919050565b7f4552433732313a20696e76616c696420746f6b656e2049440000000000000000600082015250565b6000612753601883611f2a565b915061275e8261271d565b602082019050919050565b6000602082019050818103600083015261278281612746565b9050919050565b7f4552433732313a2061646472657373207a65726f206973206e6f74206120766160008201527f6c6964206f776e65720000000000000000000000000000000000000000000000602082015250565b60006127e5602983611f2a565b91506127f082612789565b604082019050919050565b60006020820190508181036000830152612814816127d8565b9050919050565b600081905092915050565b600061283182611f1f565b61283b818561281b565b935061284b818560208601611f3b565b80840191505092915050565b60006128638285612826565b915061286f8284612826565b91508190509392505050565b7f4d6178696d756d20737570706c79207265616368656400000000000000000000600082015250565b60006128b1601683611f2a565b91506128bc8261287b565b602082019050919050565b600060208201905081810360008301526128e0816128a4565b9050919050565b7f496e73756666696369656e742045746865722073656e74000000000000000000600082015250565b600061291d601783611f2a565b9150612928826128e7565b602082019050919050565b6000602082019050818103600083015261294c81612910565b9050919050565b7f4f776e61626c653a206e6577206f776e657220697320746865207a65726f206160008201527f6464726573730000000000000000000000000000000000000000000000000000602082015250565b60006129af602683611f2a565b91506129ba82612953565b604082019050919050565b600060208201905081810360008301526129de816129a2565b9050919050565b7f4552433732313a207472616e736665722066726f6d20696e636f72726563742060008201527f6f776e6572000000000000000000000000000000000000000000000000000000602082015250565b6000612a41602583611f2a565b9150612a4c826129e5565b604082019050919050565b60006020820190508181036000830152612a7081612a34565b9050919050565b7f4552433732313a207472616e7366657220746f20746865207a65726f2061646460008201527f7265737300000000000000000000000000000000000000000000000000000000602082015250565b6000612ad3602483611f2a565b9150612ade82612a77565b604082019050919050565b60006020820190508181036000830152612b0281612ac6565b9050919050565b7f4f776e61626c653a2063616c6c6572206973206e6f7420746865206f776e6572600082015250565b6000612b3f602083611f2a565b9150612b4a82612b09565b602082019050919050565b60006020820190508181036000830152612b6e81612b32565b9050919050565b7f4552433732313a20617070726f766520746f2063616c6c657200000000000000600082015250565b6000612bab601983611f2a565b9150612bb682612b75565b602082019050919050565b60006020820190508181036000830152612bda81612b9e565b9050919050565b7f4552433732313a207472616e7366657220746f206e6f6e20455243373231526560008201527f63656976657220696d706c656d656e7465720000000000000000000000000000602082015250565b6000612c3d603283611f2a565b9150612c4882612be1565b604082019050919050565b60006020820190508181036000830152612c6c81612c30565b9050919050565b7f4552433732313a206d696e7420746f20746865207a65726f2061646472657373600082015250565b6000612ca9602083611f2a565b9150612cb482612c73565b602082019050919050565b60006020820190508181036000830152612cd881612c9c565b9050919050565b7f4552433732313a20746f6b656e20616c7265616479206d696e74656400000000600082015250565b6000612d15601c83611f2a565b9150612d2082612cdf565b602082019050919050565b60006020820190508181036000830152612d4481612d08565b9050919050565b7f45524337323155524953746f726167653a2055524920736574206f66206e6f6e60008201527f6578697374656e7420746f6b656e000000000000000000000000000000000000602082015250565b6000612da7602e83611f2a565b9150612db282612d4b565b604082019050919050565b60006020820190508181036000830152612dd681612d9a565b9050919050565b60008190508160005260206000209050919050565b60006020601f8301049050919050565b600082821b905092915050565b600060088302612e3f7fffffffffffffffffffffffffffffffffffffffffffffffffffffffffffffffff82612e02565b612e498683612e02565b95508019841693508086168417925050509392505050565b6000819050919050565b6000612e86612e81612e7c84611fd1565b612e61565b611fd1565b9050919050565b6000819050919050565b612ea083612e6b565b612eb4612eac82612e8d565b848454612e0f565b825550505050565b600090565b612ec9612ebc565b612ed4818484612e97565b505050565b5b81811015612ef857612eed600082612ec1565b600181019050612eda565b5050565b601f821115612f3d57612f0e81612ddd565b612f1784612df2565b81016020851015612f26578190505b612f3a612f3285612df2565b830182612ed9565b50505b505050565b600082821c905092915050565b6000612f6060001984600802612f42565b1980831691505092915050565b6000612f798383612f4f565b9150826002028217905092915050565b612f9282611f1f565b67ffffffffffffffff811115612fab57612faa61221c565b5b612fb58254612536565b612fc0828285612efc565b600060209050601f831160018114612ff35760008415612fe1578287015190505b612feb8582612f6d565b865550613053565b601f19841661300186612ddd565b60005b8281101561302957848901518255600182019150602085019450602081019050613004565b868310156130465784890151613042601f891682612f4f565b8355505b6001600288020188555050505b505050505050565b600081519050919050565b600082825260208201905092915050565b60006130828261305b565b61308c8185613066565b935061309c818560208601611f3b565b6130a581611f65565b840191505092915050565b60006080820190506130c56000830187612066565b6130d26020830186612066565b6130df60408301856120fc565b81810360608301526130f18184613077565b905095945050505050565b60008151905061310b81611e90565b92915050565b60006020828403121561312757613126611e5a565b5b6000613135848285016130fc565b91505092915050565b7f4e487b7100000000000000000000000000000000000000000000000000000000600052601260045260246000fdfea2646970667358221220c9afe84363c35845152c8f1e5808e05777f8fb26f7dda8a7393b359de704cabd64736f6c63430008120033",
  "linkReferences": {},
  "deployedLinkReferences": {}
}